{
  "_format": "hh-sol-artifact-1",
  "contractName": "Vim",
  "sourceName": "contracts/Vim.sol",
  "abi": [
    {
      "inputs": [],
      "stateMutability": "payable",
      "type": "constructor"
    },
    {
      "anonymous": false,
      "inputs": [
        {
          "indexed": true,
          "internalType": "address",
          "name": "from",
          "type": "address"
        },
        {
          "indexed": false,
          "internalType": "uint256",
          "name": "timestamp",
          "type": "uint256"
        },
        {
          "indexed": false,
          "internalType": "string",
          "name": "message",
          "type": "string"
        }
      ],
      "name": "NewExit",
      "type": "event"
    },
    {
      "inputs": [
        {
          "internalType": "string",
          "name": "_message",
          "type": "string"
        }
      ],
      "name": "exitVim",
      "outputs": [],
      "stateMutability": "nonpayable",
      "type": "function"
    },
    {
      "inputs": [],
      "name": "getAllExits",
      "outputs": [
        {
          "components": [
            {
              "internalType": "address",
              "name": "exitter",
              "type": "address"
            },
            {
              "internalType": "string",
              "name": "message",
              "type": "string"
            },
            {
              "internalType": "uint256",
              "name": "timestamp",
              "type": "uint256"
            }
          ],
          "internalType": "struct Vim.Exit[]",
          "name": "",
          "type": "tuple[]"
        }
      ],
      "stateMutability": "view",
      "type": "function"
    },
    {
      "inputs": [],
      "name": "getTotalExits",
      "outputs": [
        {
          "internalType": "uint256",
          "name": "",
          "type": "uint256"
        }
      ],
      "stateMutability": "view",
      "type": "function"
    },
    {
      "inputs": [
        {
          "internalType": "address",
          "name": "",
          "type": "address"
        }
      ],
      "name": "lastExittedAt",
      "outputs": [
        {
          "internalType": "uint256",
          "name": "",
          "type": "uint256"
        }
      ],
      "stateMutability": "view",
      "type": "function"
    }
  ],
  "bytecode": "0x60806040526200004f6040518060400160405280600781526020017f486d6d6d2e2e2e000000000000000000000000000000000000000000000000008152506200007760201b620006481760201c565b606444426200005f9190620001c4565b6200006b919062000261565b60018190555062000308565b62000117816040516024016200008e919062000184565b6040516020818303038152906040527f41304fac000000000000000000000000000000000000000000000000000000007bffffffffffffffffffffffffffffffffffffffffffffffffffffffff19166020820180517bffffffffffffffffffffffffffffffffffffffffffffffffffffffff83818316178352505050506200011a60201b60201c565b50565b60008151905060006a636f6e736f6c652e6c6f679050602083016000808483855afa5050505050565b60006200015082620001a8565b6200015c8185620001b3565b93506200016e8185602086016200022b565b6200017981620002f7565b840191505092915050565b60006020820190508181036000830152620001a0818462000143565b905092915050565b600081519050919050565b600082825260208201905092915050565b6000620001d18262000221565b9150620001de8362000221565b9250827fffffffffffffffffffffffffffffffffffffffffffffffffffffffffffffffff0382111562000216576200021562000299565b5b828201905092915050565b6000819050919050565b60005b838110156200024b5780820151818401526020810190506200022e565b838111156200025b576000848401525b50505050565b60006200026e8262000221565b91506200027b8362000221565b9250826200028e576200028d620002c8565b5b828206905092915050565b7f4e487b7100000000000000000000000000000000000000000000000000000000600052601160045260246000fd5b7f4e487b7100000000000000000000000000000000000000000000000000000000600052601260045260246000fd5b6000601f19601f8301169050919050565b61123a80620003186000396000f3fe608060405234801561001057600080fd5b506004361061004c5760003560e01c806314f83af91461005157806367e94031146100815780638d52fea31461009d57806398192769146100bb575b600080fd5b61006b60048036038101906100669190610a01565b6100d9565b6040516100789190610ddc565b60405180910390f35b61009b60048036038101906100969190610a2a565b6100f1565b005b6100a56104ac565b6040516100b29190610c93565b60405180910390f35b6100c36105fd565b6040516100d09190610ddc565b60405180910390f35b60036020528060005260406000206000915090505481565b42610384600360003373ffffffffffffffffffffffffffffffffffffffff1673ffffffffffffffffffffffffffffffffffffffff1681526020019081526020016000205461013f9190610eee565b1061017f576040517f08c379a000000000000000000000000000000000000000000000000000000000815260040161017690610dbc565b60405180910390fd5b42600360003373ffffffffffffffffffffffffffffffffffffffff1673ffffffffffffffffffffffffffffffffffffffff1681526020019081526020016000208190555060016000808282546101d59190610eee565b9250508190555061021c6040518060400160405280600e81526020017f2573206578697465642056696d3a00000000000000000000000000000000000081525033836106e1565b600260405180606001604052803373ffffffffffffffffffffffffffffffffffffffff16815260200183815260200142815250908060018154018082558091505060019003906000526020600020906003020160009091909190915060008201518160000160006101000a81548173ffffffffffffffffffffffffffffffffffffffff021916908373ffffffffffffffffffffffffffffffffffffffff16021790555060208201518160010190805190602001906102db9291906108e1565b50604082015181600201555050606460015442446102f99190610eee565b6103039190610eee565b61030d9190611025565b6001819055506032600154116104595761035c6040518060400160405280601081526020017f257320676f74206120726577617264210000000000000000000000000000000081525033610780565b6000655af3107a40009050478111156103aa576040517f08c379a00000000000000000000000000000000000000000000000000000000081526004016103a190610d7c565b60405180910390fd5b60003373ffffffffffffffffffffffffffffffffffffffff16826040516103d090610c7e565b60006040518083038185875af1925050503d806000811461040d576040519150601f19603f3d011682016040523d82523d6000602084013e610412565b606091505b5050905080610456576040517f08c379a000000000000000000000000000000000000000000000000000000000815260040161044d90610d9c565b60405180910390fd5b50505b3373ffffffffffffffffffffffffffffffffffffffff167ff63363a24512d79eb638deb08e3bc8537f517e1b77ccf171cee98b363d5bcb0742836040516104a1929190610df7565b60405180910390a250565b60606002805480602002602001604051908101604052809291908181526020016000905b828210156105f457838290600052602060002090600302016040518060600160405290816000820160009054906101000a900473ffffffffffffffffffffffffffffffffffffffff1673ffffffffffffffffffffffffffffffffffffffff1673ffffffffffffffffffffffffffffffffffffffff16815260200160018201805461055990610fc2565b80601f016020809104026020016040519081016040528092919081815260200182805461058590610fc2565b80156105d25780601f106105a7576101008083540402835291602001916105d2565b820191906000526020600020905b8154815290600101906020018083116105b557829003601f168201915b50505050508152602001600282015481525050815260200190600101906104d0565b50505050905090565b60006106406040518060400160405280601e81526020017f25642070656f706c65206d616e6167656420746f20657869742056696d21000081525060005461081c565b600054905090565b6106de8160405160240161065c9190610cb5565b6040516020818303038152906040527f41304fac000000000000000000000000000000000000000000000000000000007bffffffffffffffffffffffffffffffffffffffffffffffffffffffff19166020820180517bffffffffffffffffffffffffffffffffffffffffffffffffffffffff83818316178352505050506108b8565b50565b61077b8383836040516024016106f993929190610d07565b6040516020818303038152906040527fe0e9ad4f000000000000000000000000000000000000000000000000000000007bffffffffffffffffffffffffffffffffffffffffffffffffffffffff19166020820180517bffffffffffffffffffffffffffffffffffffffffffffffffffffffff83818316178352505050506108b8565b505050565b6108188282604051602401610796929190610cd7565b6040516020818303038152906040527f319af333000000000000000000000000000000000000000000000000000000007bffffffffffffffffffffffffffffffffffffffffffffffffffffffff19166020820180517bffffffffffffffffffffffffffffffffffffffffffffffffffffffff83818316178352505050506108b8565b5050565b6108b48282604051602401610832929190610d4c565b6040516020818303038152906040527f9710a9d0000000000000000000000000000000000000000000000000000000007bffffffffffffffffffffffffffffffffffffffffffffffffffffffff19166020820180517bffffffffffffffffffffffffffffffffffffffffffffffffffffffff83818316178352505050506108b8565b5050565b60008151905060006a636f6e736f6c652e6c6f679050602083016000808483855afa5050505050565b8280546108ed90610fc2565b90600052602060002090601f01602090048101928261090f5760008555610956565b82601f1061092857805160ff1916838001178555610956565b82800160010185558215610956579182015b8281111561095557825182559160200191906001019061093a565b5b5090506109639190610967565b5090565b5b80821115610980576000816000905550600101610968565b5090565b600061099761099284610e4c565b610e27565b9050828152602081018484840111156109af57600080fd5b6109ba848285610f80565b509392505050565b6000813590506109d1816111ed565b92915050565b600082601f8301126109e857600080fd5b81356109f8848260208601610984565b91505092915050565b600060208284031215610a1357600080fd5b6000610a21848285016109c2565b91505092915050565b600060208284031215610a3c57600080fd5b600082013567ffffffffffffffff811115610a5657600080fd5b610a62848285016109d7565b91505092915050565b6000610a778383610c10565b905092915050565b610a8881610f44565b82525050565b610a9781610f44565b82525050565b6000610aa882610e8d565b610ab28185610eb0565b935083602082028501610ac485610e7d565b8060005b85811015610b005784840389528151610ae18582610a6b565b9450610aec83610ea3565b925060208a01995050600181019050610ac8565b50829750879550505050505092915050565b6000610b1d82610e98565b610b278185610ecc565b9350610b37818560208601610f8f565b610b4081611112565b840191505092915050565b6000610b5682610e98565b610b608185610edd565b9350610b70818560208601610f8f565b610b7981611112565b840191505092915050565b6000610b91603683610edd565b9150610b9c82611123565b604082019050919050565b6000610bb4600083610ec1565b9150610bbf82611172565b600082019050919050565b6000610bd7602383610edd565b9150610be282611175565b604082019050919050565b6000610bfa600883610edd565b9150610c05826111c4565b602082019050919050565b6000606083016000830151610c286000860182610a7f565b5060208301518482036020860152610c408282610b12565b9150506040830151610c556040860182610c60565b508091505092915050565b610c6981610f76565b82525050565b610c7881610f76565b82525050565b6000610c8982610ba7565b9150819050919050565b60006020820190508181036000830152610cad8184610a9d565b905092915050565b60006020820190508181036000830152610ccf8184610b4b565b905092915050565b60006040820190508181036000830152610cf18185610b4b565b9050610d006020830184610a8e565b9392505050565b60006060820190508181036000830152610d218186610b4b565b9050610d306020830185610a8e565b8181036040830152610d428184610b4b565b9050949350505050565b60006040820190508181036000830152610d668185610b4b565b9050610d756020830184610c6f565b9392505050565b60006020820190508181036000830152610d9581610b84565b9050919050565b60006020820190508181036000830152610db581610bca565b9050919050565b60006020820190508181036000830152610dd581610bed565b9050919050565b6000602082019050610df16000830184610c6f565b92915050565b6000604082019050610e0c6000830185610c6f565b8181036020830152610e1e8184610b4b565b90509392505050565b6000610e31610e42565b9050610e3d8282610ff4565b919050565b6000604051905090565b600067ffffffffffffffff821115610e6757610e666110e3565b5b610e7082611112565b9050602081019050919050565b6000819050602082019050919050565b600081519050919050565b600081519050919050565b6000602082019050919050565b600082825260208201905092915050565b600081905092915050565b600082825260208201905092915050565b600082825260208201905092915050565b6000610ef982610f76565b9150610f0483610f76565b9250827fffffffffffffffffffffffffffffffffffffffffffffffffffffffffffffffff03821115610f3957610f38611056565b5b828201905092915050565b6000610f4f82610f56565b9050919050565b600073ffffffffffffffffffffffffffffffffffffffff82169050919050565b6000819050919050565b82818337600083830152505050565b60005b83811015610fad578082015181840152602081019050610f92565b83811115610fbc576000848401525b50505050565b60006002820490506001821680610fda57607f821691505b60208210811415610fee57610fed6110b4565b5b50919050565b610ffd82611112565b810181811067ffffffffffffffff8211171561101c5761101b6110e3565b5b80604052505050565b600061103082610f76565b915061103b83610f76565b92508261104b5761104a611085565b5b828206905092915050565b7f4e487b7100000000000000000000000000000000000000000000000000000000600052601160045260246000fd5b7f4e487b7100000000000000000000000000000000000000000000000000000000600052601260045260246000fd5b7f4e487b7100000000000000000000000000000000000000000000000000000000600052602260045260246000fd5b7f4e487b7100000000000000000000000000000000000000000000000000000000600052604160045260246000fd5b6000601f19601f8301169050919050565b7f547279696e6720746f207769746864726177206d6f7265206d6f6e657920746860008201527f616e2074686520636f6e747261637420686173203a2800000000000000000000602082015250565b50565b7f4661696c656420746f2077697468647261772066726f6d20636f6e747261637460008201527f203a2f0000000000000000000000000000000000000000000000000000000000602082015250565b7f576169742031356d000000000000000000000000000000000000000000000000600082015250565b6111f681610f44565b811461120157600080fd5b5056fea264697066735822122058fd2d9c88efe11433f7f30fe6a6f5bbc0dbef3b8b8cecd7b0f9a9db871840a264736f6c63430008040033",
  "linkReferences": {},
  "deployedLinkReferences": {}
}